:020000040800F2
:10000000FCFF002031120000151200001512000044
:100010001512000015120000151200001512000044
:100020001512000015120000151200001512000034
:100030001512000015120000151200001512000024
:100040001512000015120000151200001512000014
:100050001512000015120000151200001512000004
:1000600015120000151200001512000015120000F4
:1000700015120000151200001512000015120000E4
:1000800015120000151200001512000015120000D4
:1000900015120000151200001512000015120000C4
:1000A00015120000151200001512000015120000B4
:1000B00015120000151200001512000015120000A4
:1000C0001512000015120000151200001512000094
:1000D0001512000015120000151200001512000084
:1000E0001512000015120000151200001512000074
:1000F0001512000015120000151200001512000064
:100100001512000015120000151200001512000053
:100110001512000015120000151200001512000043
:100120001512000015120000151200001512000033
:100130001512000015120000151200001512000023
:100140001512000015120000151200001512000013
:1001500081B0194900EA0101084600220EE004209E
:1001600022E0082020E010201EE020201CE040209B
:100170001AE0802018E040F2001015E00F49884294
:10018000EDD00F498842ECD00E498842EBD00E49A1
:100190008842EAD00D498842E9D00D498842E8D02A
:1001A0000C498842E7D010460B49096841EA000231
:1001B00009490A6001B0704700FCFFFF00080140D8
:1001C000000C0140001001400014014000180140E3
:1001D000001C0140002001401810024083B0CDF8FF
:1001E00000E000F0FF031A09104603F00F02134667
:1001F00014E0194A02921FE0184A02921CE0184AC1
:10020000029219E0174A029216E0174A029213E08E
:10021000164A029210E0164A02920DE00028E8D039
:100220000128E9D00228EAD00328EBD00428ECD03A
:100230000528EDD00628EED0012212B29A40ADF882
:10024000042002980A46BDF8041000F0D5F8DDF845
:1002500000E003B0704700BF00080140000C0140FF
:10026000001001400014014000180140001C014032
:100270000020014081B000230360CB009BB242EA22
:10028000030304689BB244EA03030360051D1314CF
:100290001C462B6864F382032B6000F21C050024CB
:1002A0002B6864F3CB232B600124036864F386136B
:1002B000036001B07047FFFF81B0CDF800E001227C
:1002C00052B23E490A6000F268010B686FF00061AB
:1002D00003EA0102144603F00061C90E0B4602F066
:1002E0000041B1F1004F02D135490A6801E03549BA
:1002F0000A6804F47021090C0E464FF6FF7104EAF7
:1003000001010D4604F44011B1F5401F0DD16FF00D
:10031000706102EA01010E462A490A686FF07061B5
:100320000A4028490A60324616E004F48011B1F50B
:10033000801F09D14FF00301B140C94302EA010116
:1003400041F070610A4607E0610D090105FA01F10B
:10035000C9430A4042F070622BB1610D090105FAF0
:1003600001F10A43FFE704F00041B1F1004F02D16F
:1003700013490A6001E013490A6040F2000A81460D
:100380004FEA8A0109EB01010968B1F1FF3F10D082
:1003900009F134014FEA8A03C91809680A4609EBD2
:1003A0000301096808461146FFF718FF0AF1010A20
:1003B000E6E7DDF800E001B0704700BF000342420D
:1003C0001C0001400400014001480068704700BF64
:1003D0001800002081B000F20C02116000F2080247
:1003E0001368C3F3000202B9F8E700F20C021268C6
:1003F00090B201B07047FFFF81B0CDF800E08CB241
:100400001546774B00EA03031E461846FFF7A0FE89
:10041000B4F1FF0F0CD1734B9D4203D14FF0333336
:100420003360D9E0422D03D14FF044333360D3E041
:100430004FF6FF739C4214D16A4B9D4207D14FF097
:1004400033333360341D4FF033332360C4E0422D27
:1004500007D14FF044333360341D4FF044332360F1
:10046000BAE00021002005F001030BB100211DE0DE
:1004700005F0020333B105F4C0730BB1082100E0AD
:10048000042113E005F0040333B105F020030BB1A0
:10049000042100E0002109E005F0080333B105F074
:1004A00020030BB10C2100E00821FFE74E4B05EAC9
:1004B00003030BB1032009E005F400730BB1022024
:1004C00004E005F480630BB10120FFE705F00C03A5
:1004D0000BB10143FFE704F0FF039BB2002B3BD0BD
:1004E000376800201FFA84F832462E4608282CD29E
:1004F0004FF0010303FA00F408EA0403A34222D1F7
:1005000085004FF00F03AB40DB4307EA030401FA19
:1005100005F344EA03031D4606F48173B3F5817FB6
:1005200005D102F214044FF001038340236006F06A
:100530008203822B05D102F210044FF001038340A5
:1005400023602F46FFE7401CD0E717601FFA88F0B2
:100550000F463146164602E00F462946A0B2B0F1DA
:10056000FF0F39D9331DD3F800800022082A30D27A
:1005700002F208044FF0010303FA04F400EA040352
:10058000A34224D195004FF00F03AB40DB4308EAB0
:10059000030807FA05F348EA030801F48173B3F589
:1005A000817F07D106F2140502F208044FF001031F
:1005B000A3402B6001F08203822B07D106F21005C5
:1005C00002F208044FF00103A3402B60FFE7521C26
:1005D000CCE7331DC3F80080DDF800E001B07047C0
:1005E00000FCFFFF140008000008080081B0ADF80F
:1005F00000100146BDF800000B68C3F3C01202B939
:10060000FAE70A1D106001B07047FFFF81B0CDF816
:1006100000E081B20348FFF7DDFEDDF800E001B045
:10062000704700BF0030014081B0CDF800E081B2DA
:100630000348FFF7DBFFDDF800E001B0704700BFC3
:100640000044004081B0CDF800E081B20348FFF7DC
:10065000CDFFDDF800E001B0704700BF004C004066
:1006600081B0CDF800E00C4601466FF0FF0201EAD0
:100670000202104618E001235BB2254A136022E013
:1006800001235BB2234A13601DE001235BB2224ABF
:10069000136018E001235BB2204A136013E00123CA
:1006A0005BB21F4A13600EE01E4A9042E3D0B0F1E5
:1006B000804FE5D01C4A9042E7D01C4A9042E9D0D6
:1006C0001B4A9042EBD0FFF77FFE0B686FF01002E1
:1006D00003EA02020A6040F2E8324243B2FBF4F35A
:1006E00018464FF6FF72B3FBF2F2144601F22803EC
:1006F00092B21A60621CB0FBF2F2104601F22C03B7
:1007000092B21A6080B2DDF800E001B0704700BF1D
:100710002C03424280034242840342428803424205
:100720008C034242002C01400004004000080040BD
:10073000000C004081B0D5B200F220042268012DE7
:1007400008D19C0024B2651C2DB24FF00104AC40CE
:10075000224308E09C0024B2651C2DB24FF0010436
:10076000AC40E443224000F22004226000F2340551
:100770009C002C19216001B07047FFFF81B0CDF8BB
:1007800000E083465FFA81FC1046FFF795FD0BF110
:10079000200318684FEA8C0424B24FF00103A340F1
:1007A00018430BF1200318600BF14404236843F451
:1007B000004323600BF11800BCF1010F01D9001DAB
:1007C000FFE74FEA5C03DBB25B001BB263450AD074
:1007D00004686FF4D85304EA03030360036843F426
:1007E000C043036009E004686FF01B0304EA0303DD
:1007F0000360036843F060030360DBF8003043F0FC
:100800000103CBF80030DDF800E001B07047FFFFD6
:1008100081B0CDF800E081B20348FFF7E7FEDDF8D4
:1008200000E001B0704700BF0048004081B0CDF843
:1008300000E081B20348FFF7CDFDDDF800E001B034
:10084000704700BF0038004081B0CDF800E081B2B1
:100850000348FFF7BFFDDDF800E001B0704700BFBF
:10086000003C004081B0CDF800E081B20348FFF7C2
:10087000BDFEDDF800E001B0704700BF0038014068
:1008800081B0CDF800E0044A89B2FFF7B5FDDDF88C
:1008900000E001B0704700BF1400080081B0CDF83F
:1008A00000E04FF0420289B2FFF7A6FDDDF800E05C
:1008B00001B0704781B0CDF800E081B20348FFF786
:1008C00095FEDDF800E001B0704700BF0050004029
:1008D00083B0CDF800E08DF8040002910B4C0C4B76
:1008E0001C600C4C0C4B1C60012464B20B4B1C6054
:1008F0001046FFF7E1FC029A9DF804100848FFF744
:10090000B9FCDDF800E003B0704700BFFFFFFFFF58
:100910001C0000204908000020000020BC034242C7
:10092000003C004001490860704700BFA801224216
:1009300001490860704700BFB001224201490860C8
:10094000704700BFAC01224201490860704700BFF8
:10095000B881224201490860704700BF9C81214252
:1009600001490860704700BF988121420149086031
:10097000704700BF8C01224201490860704700BFE8
:100980009401214201490860704700BFB0812242B2
:10099000026803490A60011D0A6802490A6070473B
:1009A000100000201400002001490860704700BFBB
:1009B0009C81214283B0CDF800E08AB2014690B21A
:1009C00083B2421E90B26BB10A78D4B2ADF8040083
:1009D0000291A0B2054C2468A0470299BDF804001A
:1009E000491CEDE7DDF800E003B07047100000207F
:1009F000026808490A6000F208010A6806490A60AC
:100A0000011D0A6805490A6000F218010A680449D4
:100A10000A60704700000020040000200800002049
:100A20000C00002001490860704700BF98812242F5
:100A300001490860704700BFAC812242014908604B
:100A4000704700BF9881214201490860704700BF8C
:100A50009481224201490860704700BFA081224270
:100A600081B0CDF800E0D3B2CAB281B20348FFF73B
:100A700061FEDDF800E001B0704700BF000C0040EF
:100A800081B0CDF800E001460348FFF7E9FDDDF84D
:100A900000E001B0704700BF000C00400149086051
:100AA000704700BF9001214281B0CDF800E00A46B6
:100AB000C1B20348FFF762FEDDF800E001B0704705
:100AC000000C004081B0CDF800E0A9E0012905D17B
:100AD00040F220016548FFF7E1FE04E040F220010A
:100AE0006248FFF7CDFEBBE0012905D140F20801C5
:100AF0005F48FFF7D3FE04E040F208015C48FFF7CF
:100B0000BFFEADE0012905D144F200015948FFF7CD
:100B1000C5FE04E044F200015648FFF7B1FE9FE035
:100B2000012905D140F200415148FFF7B7FE04E02A
:100B300040F200414E48FFF7A3FE91E0012905D1A4
:100B400040F600014A48FFF7A9FE04E040F6000124
:100B50004748FFF795FE83E0012905D141F20001E6
:100B60004348FFF79BFE04E041F200014048FFF7D5
:100B700087FE75E0012905D141F200013D48FFF7EC
:100B80008DFE04E041F200013A48FFF779FE67E08C
:100B9000012905D140F600013648FFF77FFE04E049
:100BA00040F600013348FFF76BFE59E0012905D1FB
:100BB00040F240012F48FFF771FE04E040F240018F
:100BC0002C48FFF75DFE4BE0012905D140F22001E2
:100BD0002848FFF763FE04E040F220012548FFF7B4
:100BE0004FFE3DE0012905D140F240012248FFF7C8
:100BF00055FE04E040F240011F48FFF741FE2FE0A0
:100C0000012905D140F280011B48FFF747FE04E0AF
:100C100040F280011848FFF733FE21E0012020E078
:100C200000283FF453AF01283FF45EAF02283FF4A1
:100C300069AF03283FF474AF04283FF47FAF052861
:100C40003FF48AAF06283FF495AF0728A0D00828C4
:100C5000ACD00928B8D00A28C4D00B28D0D0DDE702
:100C60000020DDF800E001B0704700BF000801403F
:100C70000010014000140140000C014081B0CDF88B
:100C800000E0A9E0012905D140F210016548FFF715
:100C900005FE04E040F210016248FFF7F1FDBBE001
:100CA000012905D140F204015F48FFF7F7FD04E098
:100CB00040F204015C48FFF7E3FDADE0012905D1F6
:100CC00042F200015948FFF7E9FD04E042F2000159
:100CD0005648FFF7D5FD9FE0012905D140F20041BC
:100CE0005148FFF7DBFD04E040F200414E48FFF7BA
:100CF000C7FD91E0012905D140F600014A48FFF700
:100D0000CDFD04E040F600014748FFF7B9FD83E060
:100D1000012905D141F200014348FFF7BFFD04E07E
:100D200041F200014048FFF7ABFD75E0012905D114
:100D300040F201013B48FFF7B1FD04E040F2010140
:100D40003848FFF79DFD67E0012905D140F20041D9
:100D50003648FFF7A3FD04E040F200413348FFF7B7
:100D60008FFD59E0012905D140F200212F48FFF7FE
:100D700095FD04E040F200212C48FFF781FD4BE097
:100D8000012905D140F200112848FFF787FD04E052
:100D900040F200112548FFF773FD3DE0012905D120
:100DA00040F240012248FFF779FD04E040F24001A3
:100DB0001F48FFF765FD2FE0012905D140F28001B2
:100DC0001B48FFF76BFD04E040F280011848FFF775
:100DD00057FD21E0012020E000283FF453AF012817
:100DE0003FF45EAF02283FF469AF03283FF474AFCD
:100DF00004283FF47FAF05283FF48AAF06283FF46C
:100E000095AF0728A0D00828ACD00928B8D00A2868
:100E1000C4D00B28D0D0DDE70020DDF800E001B021
:100E2000704700BF0008014000100140001401405D
:100E3000000C014081B0CDF800E0011D0A68016896
:100E4000C8B21146034AFFF743FD0020DDF800E079
:100E500001B070479013000081B0CDF800E0011D93
:100E60000A680168C8B21146034AFFF731FD002045
:100E7000DDF800E001B07047901300000149086000
:100E8000704700BF8001214201490860704700BFE0
:100E9000A801224201490860704700BFB001224208
:100EA00001490860704700BFAC0122420149086057
:100EB000704700BFA481224201490860704700BF0B
:100EC0008801224201490860704700BFA881224280
:100ED00001490860704700BFB481224281B0CDF85B
:100EE00000E0FFF7CDFDDDF800E001B07047FFFF47
:100EF00044F67F77C0F212077F1EFDD100BF00BF0E
:100F000000BF00BF00BF704781B0CDF800E08B4646
:100F100009E05846FFF7A0FF0AE05846FFF78AFFAE
:100F200006E0012004E00028F3D00128F5D0F8E71E
:100F3000DDF800E001B0704781B0CDF800E0044971
:100F40000020FFF7B1FDDDF800E001B0704700BF01
:100F5000FC130000FFFFFFFF41F6FF27C0F2B707B9
:100F60007F1EFDD100BF00BF00BF00BF00BF7047A4
:100F700081B0CDF800E003460846FFF709FD1846AA
:100F8000FFF736FD0120074C2468A0470120064CDE
:100F90002468A0470120054C2468A047DDF800E044
:100FA00001B0704708000020040000200C00002061
:100FB00081B0CDF800E000220021FFF751FDDDF8FF
:100FC00000E001B07047FFFF82B0CDF800E00128DB
:100FD00010D1012907D101231BB203FA02F080B21C
:100FE000401E80B205E04FF6E07323FA02F080B2B3
:100FF000C0B20EE0012905D101231BB203FA02F0B1
:1010000080B206E020235BB243FA02F080B240B225
:1010100080B201AC00232370641C80F0FF032370B6
:101020000020084C2468A04701AB02211846FFF7B6
:10103000C1FC0120034C2468A047DDF800E002B0A9
:10104000704700BF0400002081B0CDF800E05FFAD7
:1010500081F95FFA82FA0FE05FFA8AF15FFA89F0AC
:10106000FFF70CFE0DE05FFA8AF15FFA89F0FFF7F7
:1010700029FD06E0012004E00028EDD00128F2D08F
:10108000F8E7DDF800E001B07047FFFF81B0CDF870
:1010900000E0034C2468A047DDF800E001B0704791
:1010A0000000002081B01548006840F0010113489D
:1010B000016013491348016010480168124801405B
:1010C0000E4801600D4801686FF4802001400B4814
:1010D00001600C4801686FF4FE000140094801609E
:1010E000064801686FF0A0500140044801604FF0CD
:1010F00000010648016001B0704700BF00100240C7
:101100000000FFF004100240FFFFF6FE2C1002402A
:1011100081B01CF8019B0BF8019BBBEB0A0FF8D1C7
:1011200001B0704781B04FF000094FF0000CBDEBEB
:101130000A0F04DCBDEB0B0F01DBD446EA464BF88B
:10114000049BBBEB0A0FFAD1BCEB0A0F05DDE246AC
:10115000D9F800B00BF1040BF1E701B07047FFFFC5
:1011600082B0CDF800E0002105290DD88DF80410DB
:10117000CAB200210120FFF727FF9DF80410FFF7F6
:10118000EBFE491CC9B2EFE7DDF800E002B07047A2
:1011900081B0CDF800E005490548FFF7E9FE0020E1
:1011A000FFF774FFDDF800E001B07047D0140000D5
:1011B0006814000081B0CDF800E000220221002078
:1011C000FFF742FF002201210020FFF73DFF002230
:1011D00006210020FFF738FF002200210020FFF742
:1011E00033FF0B4801460020FFF78EFEFFF780FE1D
:1011F0006420FFF773FE47F23050FFF7D9FEFFF788
:101200009BFEFFF775FEDDF800E001B0704700BF00
:10121000C814000081B0FEE701B0704781B00249F8
:101220000248016001B07047401901001800002019
:1012300000F00CF800F050F9FFF7F0FFFFF7BAFFED
:10124000FFF7A6FFFFF78CFFFCE7FEE781B0CDF8C4
:1012500000E0464A464B474C47494BF680308142B6
:1012600006D94648006840F002014448016011E098
:1012700045F6C050814206D94048006840F001015F
:101280003E48016006E03D4801686FF007000140FC
:101290003A480160FFF706FF3948036039480460A7
:1012A000394802EA00013948016002F0010040B10A
:1012B00019463648006800F00200002800D1F8E71F
:1012C00000E0194602F4803040B10B462F48006818
:1012D00000F40030002800D1F8E700E00B4602F0EF
:1012E000805068B12948006840F08051274801606B
:1012F0002648006800F00050002800D1F8E7FFE71A
:1013000002F0806078B12148006840F080611F4899
:10131000016011461A461D48006800F00060002870
:1013200000D1F8E701E011461A4601F0807070B173
:101330001648006840F08071144801601146134857
:10134000006800F0007000B9F9E70A46FFE70C48B2
:10135000006800F00C01900000F00C00814200D009
:10136000F5E7DDF800E001B0704700BF810001053E
:1013700002841D00440601004019010000200240C3
:10138000041002402C100240FFFF0F00001002402A
:101390002A0000002B0000002C000000FFFFFFFFD0
:1013A000000000000000000000000000000000003D
:1013B000000000000000000000000000000000002D
:1013C00000000000180800001808000018080000BD
:1013D000000000000000000000000000000000000D
:1013E00000000000000000000000000000000000FD
:1013F00000000000000000000011200800000000B4
:10140000FFFFFFFF000000000000000000000000E0
:1014100000000000000000000000000000000000CC
:1014200000000000000000000000000000000000BC
:10143000180800000000000000000000000000008C
:10144000000000000000000000000000000000009C
:10145000000000000000000000000000000000008C
:1014600000000000001000009D0A0000B90E0000FE
:10147000D10E0000890E0000A10E0000950E0000A4
:101480007D0E0000C50E0000AD0E0000550A0000E4
:101490006109000055090000FFFFFFFFFFFFFFFF8C
:1014A000FFFFFFFFFFFFFFFFFFFFFFFFFFFFFFFF4C
:1014B000FFFFFFFFFFFFFFFFFFFFFFFFFFFFFFFF3C
:1014C000FFFFFFFFFFFFFFFF070000000403000016
:1014D00049080000FFFFFFFF00B5DFF810B0DFF89C
:1014E00010A0FFF71FFE00BD704700BF00000020E6
:1014F00024000020FFFFFFFFFFFFFFFFFFFFFFFFB4
:00000001FF
